{
	"contracts/sum.sol": {
		"Sum": {
			"abi": [
				{
					"inputs": [],
					"stateMutability": "nonpayable",
					"type": "constructor"
				},
				{
					"inputs": [
						{
							"internalType": "int256",
							"name": "_addValue",
							"type": "int256"
						}
					],
					"name": "add",
					"outputs": [],
					"stateMutability": "nonpayable",
					"type": "function"
				},
				{
					"inputs": [],
					"name": "getValue",
					"outputs": [
						{
							"internalType": "int256",
							"name": "",
							"type": "int256"
						}
					],
					"stateMutability": "view",
					"type": "function"
				},
				{
					"inputs": [
						{
							"internalType": "int256",
							"name": "_subValue",
							"type": "int256"
						}
					],
					"name": "subtract",
					"outputs": [],
					"stateMutability": "nonpayable",
					"type": "function"
				}
			],
			"devdoc": {
				"kind": "dev",
				"methods": {},
				"version": 1
			},
			"evm": {
				"assembly": "    /* \"contracts/sum.sol\":74:581  contract Sum{... */\n  mstore(0x40, 0x80)\n    /* \"contracts/sum.sol\":103:104  0 */\n  0x00\n    /* \"contracts/sum.sol\":93:104  int value=0 */\n  dup1\n  sstore\n    /* \"contracts/sum.sol\":154:204  constructor(){... */\n  callvalue\n  dup1\n  iszero\n  tag_1\n  jumpi\n  0x00\n  dup1\n  revert\ntag_1:\n  pop\n    /* \"contracts/sum.sol\":186:196  msg.sender */\n  caller\n    /* \"contracts/sum.sol\":178:183  owner */\n  0x02\n  0x00\n    /* \"contracts/sum.sol\":178:196  owner = msg.sender */\n  0x0100\n  exp\n  dup2\n  sload\n  dup2\n  0xffffffffffffffffffffffffffffffffffffffff\n  mul\n  not\n  and\n  swap1\n  dup4\n  0xffffffffffffffffffffffffffffffffffffffff\n  and\n  mul\n  or\n  swap1\n  sstore\n  pop\n    /* \"contracts/sum.sol\":74:581  contract Sum{... */\n  dataSize(sub_0)\n  dup1\n  dataOffset(sub_0)\n  0x00\n  codecopy\n  0x00\n  return\nstop\n\nsub_0: assembly {\n        /* \"contracts/sum.sol\":74:581  contract Sum{... */\n      mstore(0x40, 0x80)\n      callvalue\n      dup1\n      iszero\n      tag_1\n      jumpi\n      0x00\n      dup1\n      revert\n    tag_1:\n      pop\n      jumpi(tag_2, lt(calldatasize, 0x04))\n      shr(0xe0, calldataload(0x00))\n      dup1\n      0x20965255\n      eq\n      tag_3\n      jumpi\n      dup1\n      0x87db03b7\n      eq\n      tag_4\n      jumpi\n      dup1\n      0xae0f6166\n      eq\n      tag_5\n      jumpi\n    tag_2:\n      0x00\n      dup1\n      revert\n        /* \"contracts/sum.sol\":501:578  function getValue() public view returns (int) {... */\n    tag_3:\n      tag_6\n      tag_7\n      jump\t// in\n    tag_6:\n      mload(0x40)\n      tag_8\n      swap2\n      swap1\n      tag_9\n      jump\t// in\n    tag_8:\n      mload(0x40)\n      dup1\n      swap2\n      sub\n      swap1\n      return\n        /* \"contracts/sum.sol\":315:397  function add(int _addValue) public onlyOwner {... */\n    tag_4:\n      tag_10\n      0x04\n      dup1\n      calldatasize\n      sub\n      dup2\n      add\n      swap1\n      tag_11\n      swap2\n      swap1\n      tag_12\n      jump\t// in\n    tag_11:\n      tag_13\n      jump\t// in\n    tag_10:\n      stop\n        /* \"contracts/sum.sol\":405:493  function subtract(int _subValue) public onlyOwner  {... */\n    tag_5:\n      tag_14\n      0x04\n      dup1\n      calldatasize\n      sub\n      dup2\n      add\n      swap1\n      tag_15\n      swap2\n      swap1\n      tag_12\n      jump\t// in\n    tag_15:\n      tag_16\n      jump\t// in\n    tag_14:\n      stop\n        /* \"contracts/sum.sol\":501:578  function getValue() public view returns (int) {... */\n    tag_7:\n        /* \"contracts/sum.sol\":542:545  int */\n      0x00\n        /* \"contracts/sum.sol\":565:570  value */\n      dup1\n      sload\n        /* \"contracts/sum.sol\":558:570  return value */\n      swap1\n      pop\n        /* \"contracts/sum.sol\":501:578  function getValue() public view returns (int) {... */\n      swap1\n      jump\t// out\n        /* \"contracts/sum.sol\":315:397  function add(int _addValue) public onlyOwner {... */\n    tag_13:\n        /* \"contracts/sum.sol\":258:268  msg.sender */\n      caller\n        /* \"contracts/sum.sol\":249:268  owner == msg.sender */\n      0xffffffffffffffffffffffffffffffffffffffff\n      and\n        /* \"contracts/sum.sol\":249:254  owner */\n      0x02\n      0x00\n      swap1\n      sload\n      swap1\n      0x0100\n      exp\n      swap1\n      div\n      0xffffffffffffffffffffffffffffffffffffffff\n      and\n        /* \"contracts/sum.sol\":249:268  owner == msg.sender */\n      0xffffffffffffffffffffffffffffffffffffffff\n      and\n      eq\n        /* \"contracts/sum.sol\":241:287  require(owner == msg.sender, \"Owner funciton\") */\n      tag_19\n      jumpi\n      mload(0x40)\n      0x08c379a000000000000000000000000000000000000000000000000000000000\n      dup2\n      mstore\n      0x04\n      add\n      tag_20\n      swap1\n      tag_21\n      jump\t// in\n    tag_20:\n      mload(0x40)\n      dup1\n      swap2\n      sub\n      swap1\n      revert\n    tag_19:\n        /* \"contracts/sum.sol\":380:389  _addValue */\n      dup1\n        /* \"contracts/sum.sol\":371:376  value */\n      0x00\n      dup1\n        /* \"contracts/sum.sol\":371:389  value += _addValue */\n      dup3\n      dup3\n      sload\n      tag_23\n      swap2\n      swap1\n      tag_24\n      jump\t// in\n    tag_23:\n      swap3\n      pop\n      pop\n      dup2\n      swap1\n      sstore\n      pop\n        /* \"contracts/sum.sol\":315:397  function add(int _addValue) public onlyOwner {... */\n      pop\n      jump\t// out\n        /* \"contracts/sum.sol\":405:493  function subtract(int _subValue) public onlyOwner  {... */\n    tag_16:\n        /* \"contracts/sum.sol\":258:268  msg.sender */\n      caller\n        /* \"contracts/sum.sol\":249:268  owner == msg.sender */\n      0xffffffffffffffffffffffffffffffffffffffff\n      and\n        /* \"contracts/sum.sol\":249:254  owner */\n      0x02\n      0x00\n      swap1\n      sload\n      swap1\n      0x0100\n      exp\n      swap1\n      div\n      0xffffffffffffffffffffffffffffffffffffffff\n      and\n        /* \"contracts/sum.sol\":249:268  owner == msg.sender */\n      0xffffffffffffffffffffffffffffffffffffffff\n      and\n      eq\n        /* \"contracts/sum.sol\":241:287  require(owner == msg.sender, \"Owner funciton\") */\n      tag_26\n      jumpi\n      mload(0x40)\n      0x08c379a000000000000000000000000000000000000000000000000000000000\n      dup2\n      mstore\n      0x04\n      add\n      tag_27\n      swap1\n      tag_21\n      jump\t// in\n    tag_27:\n      mload(0x40)\n      dup1\n      swap2\n      sub\n      swap1\n      revert\n    tag_26:\n        /* \"contracts/sum.sol\":476:485  _subValue */\n      dup1\n        /* \"contracts/sum.sol\":467:472  value */\n      0x00\n      dup1\n        /* \"contracts/sum.sol\":467:485  value -= _subValue */\n      dup3\n      dup3\n      sload\n      tag_29\n      swap2\n      swap1\n      tag_30\n      jump\t// in\n    tag_29:\n      swap3\n      pop\n      pop\n      dup2\n      swap1\n      sstore\n      pop\n        /* \"contracts/sum.sol\":405:493  function subtract(int _subValue) public onlyOwner  {... */\n      pop\n      jump\t// out\n        /* \"#utility.yul\":7:83   */\n    tag_31:\n        /* \"#utility.yul\":43:50   */\n      0x00\n        /* \"#utility.yul\":72:77   */\n      dup2\n        /* \"#utility.yul\":61:77   */\n      swap1\n      pop\n        /* \"#utility.yul\":7:83   */\n      swap2\n      swap1\n      pop\n      jump\t// out\n        /* \"#utility.yul\":89:204   */\n    tag_32:\n        /* \"#utility.yul\":174:197   */\n      tag_45\n        /* \"#utility.yul\":191:196   */\n      dup2\n        /* \"#utility.yul\":174:197   */\n      tag_31\n      jump\t// in\n    tag_45:\n        /* \"#utility.yul\":169:172   */\n      dup3\n        /* \"#utility.yul\":162:198   */\n      mstore\n        /* \"#utility.yul\":89:204   */\n      pop\n      pop\n      jump\t// out\n        /* \"#utility.yul\":210:428   */\n    tag_9:\n        /* \"#utility.yul\":301:305   */\n      0x00\n        /* \"#utility.yul\":339:341   */\n      0x20\n        /* \"#utility.yul\":328:337   */\n      dup3\n        /* \"#utility.yul\":324:342   */\n      add\n        /* \"#utility.yul\":316:342   */\n      swap1\n      pop\n        /* \"#utility.yul\":352:421   */\n      tag_47\n        /* \"#utility.yul\":418:419   */\n      0x00\n        /* \"#utility.yul\":407:416   */\n      dup4\n        /* \"#utility.yul\":403:420   */\n      add\n        /* \"#utility.yul\":394:400   */\n      dup5\n        /* \"#utility.yul\":352:421   */\n      tag_32\n      jump\t// in\n    tag_47:\n        /* \"#utility.yul\":210:428   */\n      swap3\n      swap2\n      pop\n      pop\n      jump\t// out\n        /* \"#utility.yul\":515:632   */\n    tag_34:\n        /* \"#utility.yul\":624:625   */\n      0x00\n        /* \"#utility.yul\":621:622   */\n      dup1\n        /* \"#utility.yul\":614:626   */\n      revert\n        /* \"#utility.yul\":761:881   */\n    tag_36:\n        /* \"#utility.yul\":833:856   */\n      tag_52\n        /* \"#utility.yul\":850:855   */\n      dup2\n        /* \"#utility.yul\":833:856   */\n      tag_31\n      jump\t// in\n    tag_52:\n        /* \"#utility.yul\":826:831   */\n      dup2\n        /* \"#utility.yul\":823:857   */\n      eq\n        /* \"#utility.yul\":813:875   */\n      tag_53\n      jumpi\n        /* \"#utility.yul\":871:872   */\n      0x00\n        /* \"#utility.yul\":868:869   */\n      dup1\n        /* \"#utility.yul\":861:873   */\n      revert\n        /* \"#utility.yul\":813:875   */\n    tag_53:\n        /* \"#utility.yul\":761:881   */\n      pop\n      jump\t// out\n        /* \"#utility.yul\":887:1024   */\n    tag_37:\n        /* \"#utility.yul\":932:937   */\n      0x00\n        /* \"#utility.yul\":970:976   */\n      dup2\n        /* \"#utility.yul\":957:977   */\n      calldataload\n        /* \"#utility.yul\":948:977   */\n      swap1\n      pop\n        /* \"#utility.yul\":986:1018   */\n      tag_55\n        /* \"#utility.yul\":1012:1017   */\n      dup2\n        /* \"#utility.yul\":986:1018   */\n      tag_36\n      jump\t// in\n    tag_55:\n        /* \"#utility.yul\":887:1024   */\n      swap3\n      swap2\n      pop\n      pop\n      jump\t// out\n        /* \"#utility.yul\":1030:1357   */\n    tag_12:\n        /* \"#utility.yul\":1088:1094   */\n      0x00\n        /* \"#utility.yul\":1137:1139   */\n      0x20\n        /* \"#utility.yul\":1125:1134   */\n      dup3\n        /* \"#utility.yul\":1116:1123   */\n      dup5\n        /* \"#utility.yul\":1112:1135   */\n      sub\n        /* \"#utility.yul\":1108:1140   */\n      slt\n        /* \"#utility.yul\":1105:1224   */\n      iszero\n      tag_57\n      jumpi\n        /* \"#utility.yul\":1143:1222   */\n      tag_58\n      tag_34\n      jump\t// in\n    tag_58:\n        /* \"#utility.yul\":1105:1224   */\n    tag_57:\n        /* \"#utility.yul\":1263:1264   */\n      0x00\n        /* \"#utility.yul\":1288:1340   */\n      tag_59\n        /* \"#utility.yul\":1332:1339   */\n      dup5\n        /* \"#utility.yul\":1323:1329   */\n      dup3\n        /* \"#utility.yul\":1312:1321   */\n      dup6\n        /* \"#utility.yul\":1308:1330   */\n      add\n        /* \"#utility.yul\":1288:1340   */\n      tag_37\n      jump\t// in\n    tag_59:\n        /* \"#utility.yul\":1278:1340   */\n      swap2\n      pop\n        /* \"#utility.yul\":1234:1350   */\n      pop\n        /* \"#utility.yul\":1030:1357   */\n      swap3\n      swap2\n      pop\n      pop\n      jump\t// out\n        /* \"#utility.yul\":1363:1532   */\n    tag_38:\n        /* \"#utility.yul\":1447:1458   */\n      0x00\n        /* \"#utility.yul\":1481:1487   */\n      dup3\n        /* \"#utility.yul\":1476:1479   */\n      dup3\n        /* \"#utility.yul\":1469:1488   */\n      mstore\n        /* \"#utility.yul\":1521:1525   */\n      0x20\n        /* \"#utility.yul\":1516:1519   */\n      dup3\n        /* \"#utility.yul\":1512:1526   */\n      add\n        /* \"#utility.yul\":1497:1526   */\n      swap1\n      pop\n        /* \"#utility.yul\":1363:1532   */\n      swap3\n      swap2\n      pop\n      pop\n      jump\t// out\n        /* \"#utility.yul\":1538:1702   */\n    tag_39:\n        /* \"#utility.yul\":1678:1694   */\n      0x4f776e65722066756e6369746f6e000000000000000000000000000000000000\n        /* \"#utility.yul\":1674:1675   */\n      0x00\n        /* \"#utility.yul\":1666:1672   */\n      dup3\n        /* \"#utility.yul\":1662:1676   */\n      add\n        /* \"#utility.yul\":1655:1695   */\n      mstore\n        /* \"#utility.yul\":1538:1702   */\n      pop\n      jump\t// out\n        /* \"#utility.yul\":1708:2074   */\n    tag_40:\n        /* \"#utility.yul\":1850:1853   */\n      0x00\n        /* \"#utility.yul\":1871:1938   */\n      tag_63\n        /* \"#utility.yul\":1935:1937   */\n      0x0e\n        /* \"#utility.yul\":1930:1933   */\n      dup4\n        /* \"#utility.yul\":1871:1938   */\n      tag_38\n      jump\t// in\n    tag_63:\n        /* \"#utility.yul\":1864:1938   */\n      swap2\n      pop\n        /* \"#utility.yul\":1947:2040   */\n      tag_64\n        /* \"#utility.yul\":2036:2039   */\n      dup3\n        /* \"#utility.yul\":1947:2040   */\n      tag_39\n      jump\t// in\n    tag_64:\n        /* \"#utility.yul\":2065:2067   */\n      0x20\n        /* \"#utility.yul\":2060:2063   */\n      dup3\n        /* \"#utility.yul\":2056:2068   */\n      add\n        /* \"#utility.yul\":2049:2068   */\n      swap1\n      pop\n        /* \"#utility.yul\":1708:2074   */\n      swap2\n      swap1\n      pop\n      jump\t// out\n        /* \"#utility.yul\":2080:2499   */\n    tag_21:\n        /* \"#utility.yul\":2246:2250   */\n      0x00\n        /* \"#utility.yul\":2284:2286   */\n      0x20\n        /* \"#utility.yul\":2273:2282   */\n      dup3\n        /* \"#utility.yul\":2269:2287   */\n      add\n        /* \"#utility.yul\":2261:2287   */\n      swap1\n      pop\n        /* \"#utility.yul\":2333:2342   */\n      dup2\n        /* \"#utility.yul\":2327:2331   */\n      dup2\n        /* \"#utility.yul\":2323:2343   */\n      sub\n        /* \"#utility.yul\":2319:2320   */\n      0x00\n        /* \"#utility.yul\":2308:2317   */\n      dup4\n        /* \"#utility.yul\":2304:2321   */\n      add\n        /* \"#utility.yul\":2297:2344   */\n      mstore\n        /* \"#utility.yul\":2361:2492   */\n      tag_66\n        /* \"#utility.yul\":2487:2491   */\n      dup2\n        /* \"#utility.yul\":2361:2492   */\n      tag_40\n      jump\t// in\n    tag_66:\n        /* \"#utility.yul\":2353:2492   */\n      swap1\n      pop\n        /* \"#utility.yul\":2080:2499   */\n      swap2\n      swap1\n      pop\n      jump\t// out\n        /* \"#utility.yul\":2505:2685   */\n    tag_41:\n        /* \"#utility.yul\":2553:2630   */\n      0x4e487b7100000000000000000000000000000000000000000000000000000000\n        /* \"#utility.yul\":2550:2551   */\n      0x00\n        /* \"#utility.yul\":2543:2631   */\n      mstore\n        /* \"#utility.yul\":2650:2654   */\n      0x11\n        /* \"#utility.yul\":2647:2648   */\n      0x04\n        /* \"#utility.yul\":2640:2655   */\n      mstore\n        /* \"#utility.yul\":2674:2678   */\n      0x24\n        /* \"#utility.yul\":2671:2672   */\n      0x00\n        /* \"#utility.yul\":2664:2679   */\n      revert\n        /* \"#utility.yul\":2691:3066   */\n    tag_24:\n        /* \"#utility.yul\":2730:2733   */\n      0x00\n        /* \"#utility.yul\":2749:2768   */\n      tag_69\n        /* \"#utility.yul\":2766:2767   */\n      dup3\n        /* \"#utility.yul\":2749:2768   */\n      tag_31\n      jump\t// in\n    tag_69:\n        /* \"#utility.yul\":2744:2768   */\n      swap2\n      pop\n        /* \"#utility.yul\":2782:2801   */\n      tag_70\n        /* \"#utility.yul\":2799:2800   */\n      dup4\n        /* \"#utility.yul\":2782:2801   */\n      tag_31\n      jump\t// in\n    tag_70:\n        /* \"#utility.yul\":2777:2801   */\n      swap3\n      pop\n        /* \"#utility.yul\":2824:2825   */\n      dup3\n        /* \"#utility.yul\":2821:2822   */\n      dup3\n        /* \"#utility.yul\":2817:2826   */\n      add\n        /* \"#utility.yul\":2810:2826   */\n      swap1\n      pop\n        /* \"#utility.yul\":3022:3023   */\n      dup3\n        /* \"#utility.yul\":3017:3020   */\n      dup2\n        /* \"#utility.yul\":3013:3024   */\n      slt\n        /* \"#utility.yul\":3006:3025   */\n      iszero\n        /* \"#utility.yul\":3002:3003   */\n      0x00\n        /* \"#utility.yul\":2999:3000   */\n      dup4\n        /* \"#utility.yul\":2995:3004   */\n      slt\n        /* \"#utility.yul\":2991:3026   */\n      and\n        /* \"#utility.yul\":2974:2975   */\n      dup4\n        /* \"#utility.yul\":2969:2972   */\n      dup3\n        /* \"#utility.yul\":2965:2976   */\n      slt\n        /* \"#utility.yul\":2960:2961   */\n      0x00\n        /* \"#utility.yul\":2957:2958   */\n      dup5\n        /* \"#utility.yul\":2953:2962   */\n      slt\n        /* \"#utility.yul\":2946:2963   */\n      iszero\n        /* \"#utility.yul\":2942:2977   */\n      and\n        /* \"#utility.yul\":2926:3036   */\n      or\n        /* \"#utility.yul\":2923:3059   */\n      iszero\n      tag_71\n      jumpi\n        /* \"#utility.yul\":3039:3057   */\n      tag_72\n      tag_41\n      jump\t// in\n    tag_72:\n        /* \"#utility.yul\":2923:3059   */\n    tag_71:\n        /* \"#utility.yul\":2691:3066   */\n      swap3\n      swap2\n      pop\n      pop\n      jump\t// out\n        /* \"#utility.yul\":3072:3444   */\n    tag_30:\n        /* \"#utility.yul\":3111:3115   */\n      0x00\n        /* \"#utility.yul\":3131:3150   */\n      tag_74\n        /* \"#utility.yul\":3148:3149   */\n      dup3\n        /* \"#utility.yul\":3131:3150   */\n      tag_31\n      jump\t// in\n    tag_74:\n        /* \"#utility.yul\":3126:3150   */\n      swap2\n      pop\n        /* \"#utility.yul\":3164:3183   */\n      tag_75\n        /* \"#utility.yul\":3181:3182   */\n      dup4\n        /* \"#utility.yul\":3164:3183   */\n      tag_31\n      jump\t// in\n    tag_75:\n        /* \"#utility.yul\":3159:3183   */\n      swap3\n      pop\n        /* \"#utility.yul\":3207:3208   */\n      dup3\n        /* \"#utility.yul\":3204:3205   */\n      dup3\n        /* \"#utility.yul\":3200:3209   */\n      sub\n        /* \"#utility.yul\":3192:3209   */\n      swap1\n      pop\n        /* \"#utility.yul\":3401:3402   */\n      dup2\n        /* \"#utility.yul\":3395:3399   */\n      dup2\n        /* \"#utility.yul\":3391:3403   */\n      slt\n        /* \"#utility.yul\":3387:3388   */\n      0x00\n        /* \"#utility.yul\":3384:3385   */\n      dup5\n        /* \"#utility.yul\":3380:3389   */\n      slt\n        /* \"#utility.yul\":3376:3404   */\n      and\n        /* \"#utility.yul\":3359:3360   */\n      dup3\n        /* \"#utility.yul\":3353:3357   */\n      dup3\n        /* \"#utility.yul\":3349:3361   */\n      sgt\n        /* \"#utility.yul\":3344:3345   */\n      0x00\n        /* \"#utility.yul\":3341:3342   */\n      dup6\n        /* \"#utility.yul\":3337:3346   */\n      slt\n        /* \"#utility.yul\":3330:3347   */\n      iszero\n        /* \"#utility.yul\":3326:3362   */\n      and\n        /* \"#utility.yul\":3310:3414   */\n      or\n        /* \"#utility.yul\":3307:3437   */\n      iszero\n      tag_76\n      jumpi\n        /* \"#utility.yul\":3417:3435   */\n      tag_77\n      tag_41\n      jump\t// in\n    tag_77:\n        /* \"#utility.yul\":3307:3437   */\n    tag_76:\n        /* \"#utility.yul\":3072:3444   */\n      swap3\n      swap2\n      pop\n      pop\n      jump\t// out\n\n    auxdata: 0xa2646970667358221220fc4fc2edf38986d27e2b51d8387be87df80a9f881ee607e122b94078b63e42cf64736f6c634300081a0033\n}\n",
				"bytecode": {
					"linkReferences": {},
					"object": "60806040525f80553480156011575f80fd5b503360025f6101000a81548173ffffffffffffffffffffffffffffffffffffffff021916908373ffffffffffffffffffffffffffffffffffffffff1602179055506103d98061005f5f395ff3fe608060405234801561000f575f80fd5b506004361061003f575f3560e01c8063209652551461004357806387db03b714610061578063ae0f61661461007d575b5f80fd5b61004b610099565b604051610058919061020b565b60405180910390f35b61007b60048036038101906100769190610252565b6100a1565b005b61009760048036038101906100929190610252565b61014a565b005b5f8054905090565b3373ffffffffffffffffffffffffffffffffffffffff1660025f9054906101000a900473ffffffffffffffffffffffffffffffffffffffff1673ffffffffffffffffffffffffffffffffffffffff1614610130576040517f08c379a0000000000000000000000000000000000000000000000000000000008152600401610127906102d7565b60405180910390fd5b805f808282546101409190610322565b9250508190555050565b3373ffffffffffffffffffffffffffffffffffffffff1660025f9054906101000a900473ffffffffffffffffffffffffffffffffffffffff1673ffffffffffffffffffffffffffffffffffffffff16146101d9576040517f08c379a00000000000000000000000000000000000000000000000000000000081526004016101d0906102d7565b60405180910390fd5b805f808282546101e99190610363565b9250508190555050565b5f819050919050565b610205816101f3565b82525050565b5f60208201905061021e5f8301846101fc565b92915050565b5f80fd5b610231816101f3565b811461023b575f80fd5b50565b5f8135905061024c81610228565b92915050565b5f6020828403121561026757610266610224565b5b5f6102748482850161023e565b91505092915050565b5f82825260208201905092915050565b7f4f776e65722066756e6369746f6e0000000000000000000000000000000000005f82015250565b5f6102c1600e8361027d565b91506102cc8261028d565b602082019050919050565b5f6020820190508181035f8301526102ee816102b5565b9050919050565b7f4e487b71000000000000000000000000000000000000000000000000000000005f52601160045260245ffd5b5f61032c826101f3565b9150610337836101f3565b92508282019050828112155f8312168382125f84121516171561035d5761035c6102f5565b5b92915050565b5f61036d826101f3565b9150610378836101f3565b925082820390508181125f8412168282135f85121516171561039d5761039c6102f5565b5b9291505056fea2646970667358221220fc4fc2edf38986d27e2b51d8387be87df80a9f881ee607e122b94078b63e42cf64736f6c634300081a0033",
					"opcodes": "PUSH1 0x80 PUSH1 0x40 MSTORE PUSH0 DUP1 SSTORE CALLVALUE DUP1 ISZERO PUSH1 0x11 JUMPI PUSH0 DUP1 REVERT JUMPDEST POP CALLER PUSH1 0x2 PUSH0 PUSH2 0x100 EXP DUP2 SLOAD DUP2 PUSH20 0xFFFFFFFFFFFFFFFFFFFFFFFFFFFFFFFFFFFFFFFF MUL NOT AND SWAP1 DUP4 PUSH20 0xFFFFFFFFFFFFFFFFFFFFFFFFFFFFFFFFFFFFFFFF AND MUL OR SWAP1 SSTORE POP PUSH2 0x3D9 DUP1 PUSH2 0x5F PUSH0 CODECOPY PUSH0 RETURN INVALID PUSH1 0x80 PUSH1 0x40 MSTORE CALLVALUE DUP1 ISZERO PUSH2 0xF JUMPI PUSH0 DUP1 REVERT JUMPDEST POP PUSH1 0x4 CALLDATASIZE LT PUSH2 0x3F JUMPI PUSH0 CALLDATALOAD PUSH1 0xE0 SHR DUP1 PUSH4 0x20965255 EQ PUSH2 0x43 JUMPI DUP1 PUSH4 0x87DB03B7 EQ PUSH2 0x61 JUMPI DUP1 PUSH4 0xAE0F6166 EQ PUSH2 0x7D JUMPI JUMPDEST PUSH0 DUP1 REVERT JUMPDEST PUSH2 0x4B PUSH2 0x99 JUMP JUMPDEST PUSH1 0x40 MLOAD PUSH2 0x58 SWAP2 SWAP1 PUSH2 0x20B JUMP JUMPDEST PUSH1 0x40 MLOAD DUP1 SWAP2 SUB SWAP1 RETURN JUMPDEST PUSH2 0x7B PUSH1 0x4 DUP1 CALLDATASIZE SUB DUP2 ADD SWAP1 PUSH2 0x76 SWAP2 SWAP1 PUSH2 0x252 JUMP JUMPDEST PUSH2 0xA1 JUMP JUMPDEST STOP JUMPDEST PUSH2 0x97 PUSH1 0x4 DUP1 CALLDATASIZE SUB DUP2 ADD SWAP1 PUSH2 0x92 SWAP2 SWAP1 PUSH2 0x252 JUMP JUMPDEST PUSH2 0x14A JUMP JUMPDEST STOP JUMPDEST PUSH0 DUP1 SLOAD SWAP1 POP SWAP1 JUMP JUMPDEST CALLER PUSH20 0xFFFFFFFFFFFFFFFFFFFFFFFFFFFFFFFFFFFFFFFF AND PUSH1 0x2 PUSH0 SWAP1 SLOAD SWAP1 PUSH2 0x100 EXP SWAP1 DIV PUSH20 0xFFFFFFFFFFFFFFFFFFFFFFFFFFFFFFFFFFFFFFFF AND PUSH20 0xFFFFFFFFFFFFFFFFFFFFFFFFFFFFFFFFFFFFFFFF AND EQ PUSH2 0x130 JUMPI PUSH1 0x40 MLOAD PUSH32 0x8C379A000000000000000000000000000000000000000000000000000000000 DUP2 MSTORE PUSH1 0x4 ADD PUSH2 0x127 SWAP1 PUSH2 0x2D7 JUMP JUMPDEST PUSH1 0x40 MLOAD DUP1 SWAP2 SUB SWAP1 REVERT JUMPDEST DUP1 PUSH0 DUP1 DUP3 DUP3 SLOAD PUSH2 0x140 SWAP2 SWAP1 PUSH2 0x322 JUMP JUMPDEST SWAP3 POP POP DUP2 SWAP1 SSTORE POP POP JUMP JUMPDEST CALLER PUSH20 0xFFFFFFFFFFFFFFFFFFFFFFFFFFFFFFFFFFFFFFFF AND PUSH1 0x2 PUSH0 SWAP1 SLOAD SWAP1 PUSH2 0x100 EXP SWAP1 DIV PUSH20 0xFFFFFFFFFFFFFFFFFFFFFFFFFFFFFFFFFFFFFFFF AND PUSH20 0xFFFFFFFFFFFFFFFFFFFFFFFFFFFFFFFFFFFFFFFF AND EQ PUSH2 0x1D9 JUMPI PUSH1 0x40 MLOAD PUSH32 0x8C379A000000000000000000000000000000000000000000000000000000000 DUP2 MSTORE PUSH1 0x4 ADD PUSH2 0x1D0 SWAP1 PUSH2 0x2D7 JUMP JUMPDEST PUSH1 0x40 MLOAD DUP1 SWAP2 SUB SWAP1 REVERT JUMPDEST DUP1 PUSH0 DUP1 DUP3 DUP3 SLOAD PUSH2 0x1E9 SWAP2 SWAP1 PUSH2 0x363 JUMP JUMPDEST SWAP3 POP POP DUP2 SWAP1 SSTORE POP POP JUMP JUMPDEST PUSH0 DUP2 SWAP1 POP SWAP2 SWAP1 POP JUMP JUMPDEST PUSH2 0x205 DUP2 PUSH2 0x1F3 JUMP JUMPDEST DUP3 MSTORE POP POP JUMP JUMPDEST PUSH0 PUSH1 0x20 DUP3 ADD SWAP1 POP PUSH2 0x21E PUSH0 DUP4 ADD DUP5 PUSH2 0x1FC JUMP JUMPDEST SWAP3 SWAP2 POP POP JUMP JUMPDEST PUSH0 DUP1 REVERT JUMPDEST PUSH2 0x231 DUP2 PUSH2 0x1F3 JUMP JUMPDEST DUP2 EQ PUSH2 0x23B JUMPI PUSH0 DUP1 REVERT JUMPDEST POP JUMP JUMPDEST PUSH0 DUP2 CALLDATALOAD SWAP1 POP PUSH2 0x24C DUP2 PUSH2 0x228 JUMP JUMPDEST SWAP3 SWAP2 POP POP JUMP JUMPDEST PUSH0 PUSH1 0x20 DUP3 DUP5 SUB SLT ISZERO PUSH2 0x267 JUMPI PUSH2 0x266 PUSH2 0x224 JUMP JUMPDEST JUMPDEST PUSH0 PUSH2 0x274 DUP5 DUP3 DUP6 ADD PUSH2 0x23E JUMP JUMPDEST SWAP2 POP POP SWAP3 SWAP2 POP POP JUMP JUMPDEST PUSH0 DUP3 DUP3 MSTORE PUSH1 0x20 DUP3 ADD SWAP1 POP SWAP3 SWAP2 POP POP JUMP JUMPDEST PUSH32 0x4F776E65722066756E6369746F6E000000000000000000000000000000000000 PUSH0 DUP3 ADD MSTORE POP JUMP JUMPDEST PUSH0 PUSH2 0x2C1 PUSH1 0xE DUP4 PUSH2 0x27D JUMP JUMPDEST SWAP2 POP PUSH2 0x2CC DUP3 PUSH2 0x28D JUMP JUMPDEST PUSH1 0x20 DUP3 ADD SWAP1 POP SWAP2 SWAP1 POP JUMP JUMPDEST PUSH0 PUSH1 0x20 DUP3 ADD SWAP1 POP DUP2 DUP2 SUB PUSH0 DUP4 ADD MSTORE PUSH2 0x2EE DUP2 PUSH2 0x2B5 JUMP JUMPDEST SWAP1 POP SWAP2 SWAP1 POP JUMP JUMPDEST PUSH32 0x4E487B7100000000000000000000000000000000000000000000000000000000 PUSH0 MSTORE PUSH1 0x11 PUSH1 0x4 MSTORE PUSH1 0x24 PUSH0 REVERT JUMPDEST PUSH0 PUSH2 0x32C DUP3 PUSH2 0x1F3 JUMP JUMPDEST SWAP2 POP PUSH2 0x337 DUP4 PUSH2 0x1F3 JUMP JUMPDEST SWAP3 POP DUP3 DUP3 ADD SWAP1 POP DUP3 DUP2 SLT ISZERO PUSH0 DUP4 SLT AND DUP4 DUP3 SLT PUSH0 DUP5 SLT ISZERO AND OR ISZERO PUSH2 0x35D JUMPI PUSH2 0x35C PUSH2 0x2F5 JUMP JUMPDEST JUMPDEST SWAP3 SWAP2 POP POP JUMP JUMPDEST PUSH0 PUSH2 0x36D DUP3 PUSH2 0x1F3 JUMP JUMPDEST SWAP2 POP PUSH2 0x378 DUP4 PUSH2 0x1F3 JUMP JUMPDEST SWAP3 POP DUP3 DUP3 SUB SWAP1 POP DUP2 DUP2 SLT PUSH0 DUP5 SLT AND DUP3 DUP3 SGT PUSH0 DUP6 SLT ISZERO AND OR ISZERO PUSH2 0x39D JUMPI PUSH2 0x39C PUSH2 0x2F5 JUMP JUMPDEST JUMPDEST SWAP3 SWAP2 POP POP JUMP INVALID LOG2 PUSH5 0x6970667358 0x22 SLT KECCAK256 0xFC 0x4F 0xC2 0xED RETURN DUP10 DUP7 0xD2 PUSH31 0x2B51D8387BE87DF80A9F881EE607E122B94078B63E42CF64736F6C63430008 BYTE STOP CALLER "
				},
				"gasEstimates": {
					"creation": {
						"codeDepositCost": "197000",
						"executionCost": "29506",
						"totalCost": "226506"
					},
					"external": {
						"add(int256)": "infinite",
						"getValue()": "2410",
						"subtract(int256)": "infinite"
					}
				},
				"methodIdentifiers": {
					"add(int256)": "87db03b7",
					"getValue()": "20965255",
					"subtract(int256)": "ae0f6166"
				}
			},
			"storageLayout": {
				"storage": [
					{
						"astId": 4,
						"contract": "contracts/sum.sol:Sum",
						"label": "value",
						"offset": 0,
						"slot": "0",
						"type": "t_int256"
					},
					{
						"astId": 6,
						"contract": "contracts/sum.sol:Sum",
						"label": "nextValue",
						"offset": 0,
						"slot": "1",
						"type": "t_uint256"
					},
					{
						"astId": 8,
						"contract": "contracts/sum.sol:Sum",
						"label": "owner",
						"offset": 0,
						"slot": "2",
						"type": "t_address"
					}
				],
				"types": {
					"t_address": {
						"encoding": "inplace",
						"label": "address",
						"numberOfBytes": "20"
					},
					"t_int256": {
						"encoding": "inplace",
						"label": "int256",
						"numberOfBytes": "32"
					},
					"t_uint256": {
						"encoding": "inplace",
						"label": "uint256",
						"numberOfBytes": "32"
					}
				}
			},
			"userdoc": {
				"kind": "user",
				"methods": {},
				"version": 1
			}
		}
	}
}